:020000040800F2
:10000000085F00209D01000899530008B94A0008C4
:1000100095530008910B0008AB7900080000000020
:100020000000000000000000000000004B6C000811
:10003000AD0C0008000000009B530008296D00086B
:10004000B7010008B7010008B7010008B7010008B0
:10005000B7010008B7010008B7010008B7010008A0
:10006000B7010008B7010008B70100082D0C00080F
:100070003D0C00084D0C0008B7010008B70100084E
:10008000B7010008B7010008B7010008B701000870
:10009000B7010008B7010008B70100083D0D0008CE
:1000A000B7010008B7010008B7010008B701000850
:1000B000B7010008416E0008B7010008B701000849
:1000C000B7010008B7010008B7010008B701000830
:1000D000B7010008B7010008B7010008B701000820
:1000E000B7010008B7010008B7010008B701000810
:1000F000B7010008B7010008B7010008B701000800
:10010000B701000829570008B7010008B701000827
:10011000B7010008B7010008B7010008B7010008DF
:10012000B7010008B7010008B70100085D0C00081E
:100130006D0C0008B7010008B7010008B7010008FE
:10014000B7010008B7010008B7010008B7010008AF
:10015000B7010008B7010008B7010008B70100089F
:10016000B7010008B7010008B7010008B70100088F
:10017000B7010008B7010008B7010008000000003F
:10018000B7010008B7010008DFF80CD000F068FAEA
:100190000048004775A90008085F0020064880470E
:1001A00006480047FEE7FEE7FEE7FEE7FEE7FEE75C
:1001B000FEE7FEE7FEE7FEE7F16D000889010008B3
:1001C0002DE9F05F0546002092469B46884606468C
:1001D000814640241BE0284641464746224600F01F
:1001E0006CF853465A46C01A914110D3114618462E
:1001F000224600F053F82D1A67EB01084F462246BD
:100200000120002100F04AF817EB00094E41201EA2
:10021000A4F10104DFDC484631462A46434600F09B
:1002200000B830BCBDE8C09F40EA01039B0703D083
:1002300009E008C9121F08C0042AFAD203E011F825
:10024000013B00F8013B521EF9D27047D2B201E0E7
:1002500000F8012B491EFBD270470022F6E710B5CB
:1002600013460A4604461946FFF7F0FF204610BD24
:1002700030B50B46014600202022012409E021FA76
:1002800002F59D4205D303FA02F5491B04FA02F573
:100290002844151EA2F10102F1DC30BD202A04DB46
:1002A000203A00FA02F1002070479140C2F1200389
:1002B00020FA03F3194390407047202A04DB203AC8
:1002C00021FA02F00021704721FA02F3D040C2F176
:1002D000200291400843194670472DE9FE4F8046A1
:1002E00081EA0300C00F0C46009021F0004123F08A
:1002F0000045B8EB0200A94105D240462146904690
:100300001C460B46024623F00040104347D0270D01
:10031000C7F30A00C3F30A510290401A0190402823
:100320006BDAC3F3130040F4801B0098924620B1AF
:100330000023D2EB030A63EB0B0B01985946C0F183
:1003400040025046FFF7AAFF06460D465046594662
:10035000019A00F097F910EB08006141002487EA48
:10036000115284EAE7731A4340D0009A62B3019AAB
:10037000012A4FEA075215DC001B61EB02014FF026
:10038000004202EA0752CDE90042001C41F580110B
:1003900032462B4600F097F903B000F045B84046CE
:1003A0002146F9E7001B61EB0201001C41F58013B7
:1003B00000185B412018A2F5001747EB030140EA43
:1003C000D570B6196D4111E06D084FEA360645EA61
:1003D000C0754FEA0752001B61EB0201001C41F59A
:1003E000801149084FEA30000019514132462B462E
:1003F00003B000F01CB800F057B90098012240008B
:100400000023D0EB020263EBE073009821464FEA31
:10041000E074B8EB000061EB0401E9E783F000430E
:100420005BE781F0004158E730BCBDE8C08F30BCCD
:10043000BDE8C04FFFF7DFBF2DE9FE4F81EA03049F
:1004400004F0004421F0004100944FF0000B23F031
:10045000004350EA01045ED052EA03045BD0C3F3C8
:100460000A54C1F30A552C44A4F2F3340194A0FBBE
:100470000254C1F3130141F48011C3F3130343F495
:10048000801301FB024400FB034E840A970A44EAEE
:10049000815447EA8357A4FB076802958D0A05FB40
:1004A00007854FEA932C04FB0C542705029D4FEA65
:1004B000065847EA1637B5EB08056EEB070C870EB2
:1004C000920E47EA811742EA8312A7FB0201B6EBBC
:1004D0000B0164EB00042B0D43EA0C335E1844EB74
:1004E0001C50DA465146E7FB0201C5F313044FEAFC
:1004F0000B3343EA14534FEA0432019C43EA0603E8
:10050000A4F10C040294009CCDE900B400F0DBF8E7
:1005100003B000F003B800200146F9E730BCBDE8A5
:10052000C08F2DE9F04D81EA030404F0004B21F067
:10053000004514464FF0000A23F0004150EA05023E
:1005400020D054EA01021DD0C5F30A570246C5F374
:100550001303C1F31300C1F30A5640F4801543F4AA
:100560008013A7EB0608101BD64608F2FD3873EB84
:10057000050002D308F1010801E092185B41B8F1CF
:10058000000F03DA00200146BDE8F08D00204FF493
:100590008011064684460EE0171B73EB050705D352
:1005A000121B63EB050306434CEA010C49084FEAB2
:1005B000300092185B4150EA0107EDD152EA030086
:1005C00012D082EA040083EA0501084305D0101B1B
:1005D000AB4106D20122002306E000224FF0004387
:1005E00002E06FF0010253101AEB06004CEB0851C9
:1005F00010EB0A0041EB0B01BDE8F04D00F054B8E0
:10060000C1F30A52C1F3130140F2FF3341F48011E8
:100610009A4202DA00200146704740F233439A4280
:10062000A2F2334202DC5242FFF747BEFFF736BE6A
:1006300030B5041E71F1000404DB4FF00044404269
:1006400064EB0101141E73F1000405DB1C464FF03E
:100650000043524263EB0403994208BF904230BD0D
:10066000064C074D06E0E06840F0010394E80700FF
:1006700098471034AC42F6D3FFF78AFD185B0308A5
:10068000385B0308202A06DBCB17203A41FA02F038
:1006900043EAE07306E041FA02F3D040C2F12002DF
:1006A000914008431946704710B5141E73F10004B9
:1006B00008DA401C41F1000192185B411A4301D154
:1006C00020F0010010BD2DE9F04D92469B4611B17E
:1006D000B1FA81F202E0B0FA80F220329046FFF7E0
:1006E000DDFD04460F4640EA0A0041EA0B0153468D
:1006F0005A46084313D0114653EA010019D0C8F1F5
:1007000040025046FFF7D9FD05460E465046594671
:100710004246FFF7C3FD084305D0012004E0204610
:100720003946BDE8F08D0020054346EAE0762C43CB
:1007300037430A986305E40AA0EB08000022FD0A8B
:1007400044EA47540A3002D500200146E9E7010592
:1007500010196941DDE9084500196941BDE8F04D0E
:10076000A2E700002DE9F05F044688464FF000093B
:100770004746206804F0D1F98246206804F0B4F9B5
:100780008346BAF1000F02D1BBF1000F6ED0206892
:10079000C06800F0007000B3607E01281DD1207E8B
:1007A00001281AD101270FE0314881450AD3606D35
:1007B00040F010006065A06D40F00100A0650120D0
:1007C00000F05AB809F1010920680068C0F38010F0
:1007D0000028E9D0402021680860022F10D020684E
:1007E00004F09BF960B1206804F083F940B92068F7
:1007F0008168204A114041F01001816000BF00BFB4
:10080000012F10D0206804F06FF960B1206804F067
:1008100070F940B920688168164A114041F0200102
:10082000816000BF00BF022F03D0032F03D10C252E
:1008300003E0082501E0042500BF00BF01F018FC1B
:1008400006460EE001F014FC801B052809D9606DF6
:1008500040F010006065A06D40F00100A06501202F
:10086000AEE72068806828400028EBD10020A7E789
:10087000000040A3C0FFFF7F30BCBDE8C09F70B543
:100880000546AC6A606D00F0500098BB606D40F4A6
:10089000007060652068006800F00800A8B120685A
:1008A00004F045F910B32068C06800F40050E8B9BE
:1008B000606D20F480706065606D00F48050A8B9B0
:1008C000606D40F00100606510E02068C06800F0D5
:1008D000020058B9606D20F480706065606D00F4AE
:1008E000805018B9606D40F001006065204600F04E
:1008F00065FD0CE0FFE7606D00F0100018B12046C8
:1009000000F09DFD03E0E06C416B2846884770BD18
:1009100070B50546AC6A606D40F040006065A06D42
:1009200040F00400A065204600F089FD70BD70B560
:100930000446A56A284600F081FD70BD70B50446E6
:10094000206804F0D6F80646206804F0D7F870B3A3
:100950006EBB2068806800F00D0001280AD1206875
:100960008168174A1140891C816000BF03202168FB
:10097000086009E0606D40F010006065A06D40F017
:100980000100A065012070BD01F072FB05460FE07B
:1009900001F06EFB401B02280AD9606D40F0100088
:1009A0006065A06D40F00100A0650120EBE705E067
:1009B0002068806800F001000028E9D10020E2E70B
:1009C000C0FFFF7F70B50446206804F097F888BB2D
:1009D000206880681849084048B1606D40F01000F8
:1009E0006065A06D40F00100A065012070BD206829
:1009F00004F064F801F03CFB054615E0206804F0C3
:100A00007DF810B9206804F059F801F031FB401B63
:100A1000022809D9606D40F010006065A06D40F0BB
:100A20000100A0650120E1E72068006800F00100F6
:100A30000028E3D00020D9E73F00008010B50B4824
:100A400003F012FD4FF4F07209490A4800F0FCFE71
:100A500009490870052001F0D7F9084803F020FD86
:100A60000C21064803F044FF10BD0000B80300202D
:100A7000DC0C00205400002038000020F803002087
:100A800010B501248021034801F0E4FA00B10024EC
:100A9000204610BD000800487047000010B504460D
:100AA0002146024802F0B0FD10BD0000F801002010
:100AB00010B5044802F0BBFD042801D0012010BD90
:100AC0000020FCE7F801002010B5002400F014F825
:100AD000012801D0022010BD064802F0BDFE0446E8
:100AE00034B94FF40061034802F046FC00B1012420
:100AF0002046F0E7F801002008B501200090FFF73C
:100B0000BFFF08B9002000909DF8000008BD00005C
:100B10002DE9F04104460D461646002700200849FD
:100B2000C863084605F050FA074633462A46214670
:100B3000034802F0AFFF00B101273846BDE8F0815D
:100B4000F8010020012001490860704708000020DA
:100B50002DE9F04104460D461646002700200849BD
:100B60000864084605F05EFA074633462A462146E1
:100B7000034803F02BF800B101273846BDE8F081A7
:100B8000F80100200120014908607047040000209E
:100B900000BFFEE710B50C48007818B90B4808F004
:100BA000ADFA08B1012000E00020074908700846AE
:100BB000007838B1064809F0EFF806480068401E92
:100BC0000449086010BD00000C000020EC06002065
:100BD000F42E00204800002010B50D4800684FF4A6
:100BE000FA6190FBF1F201FB1200401C0849086019
:100BF0000846084A08A10368094806F0C3FF0A220C
:100C00000749084808F0BAFE0749087010BD0000FF
:100C100048000020105B03082F25732F2564000077
:100C2000F42E0020EC0600200C00002010B5024835
:100C300000F096FF10BD00001C01002010B5024816
:100C400000F08EFF10BD00007003002010B50248B8
:100C500000F086FF10BD00006401002010B50248BE
:100C600000F07EFF10BD00007C02002010B502489D
:100C700000F076FF10BD0000C402002030B590F8EF
:100C8000444004F01C050124AC40056C6C60046811
:100C900063608468102C04D10468A2600468E16079
:100CA00003E00468A1600468E26030BD70470000A2
:100CB00070B5044602211E4801F0CCF905464DBB33
:100CC0001C48006840B9FFF787FF204606F070FE19
:100CD00001201949087011E01648006840F2CF71F0
:100CE000884208D1204606F063FEFFF753FF00203C
:100CF0001149087002E0204606F05AFE0D480068CF
:100D0000401C4FF4FA6190FBF1F201FB120009491B
:100D100008600BE008480078012804D1FFF73AFF8B
:100D200000200549087000200249086070BD0000DD
:100D3000001400484C0000205000002010B5202076
:100D400001F078F810BD704730B504460D4600221A
:100D50002946204600F002F830BD0000F0B50346F9
:100D6000012500241148407A01281CDA00200F4E8A
:100D7000767A0E4FB8553846467A001D40F8263030
:100D8000001F467A083082553E46707A461C7E72B5
:100D9000044604F1300008703A2048702F20887013
:100DA0000020C87000252846F0BD00002C2B002034
:100DB0002DE9F04399B004460E464FF00008306824
:100DC00000B100BF00BF94F85000012803D10220F9
:100DD00019B0BDE8F083012084F8500000BF384905
:100DE0002068884202D13748009001E0002000903E
:100DF000009850B9606D40F02000606500BF002091
:100E000084F8500000BF0120E2E7009803F08AFE5A
:100E10000746206803F086FEF0BBEFBB2A4D306822
:100E200020B394F83000716841EA4030A96821F499
:100E300060410843A860224803F065FE81462148CE
:100E400003F061FE49EA0009204803F05CFE49EA2C
:100E50000009B9F1000F2CD1B16830680843A968C6
:100E600040F61F7291430843A86022E0A86820F46E
:100E70006040A860124803F046FE8146114803F026
:100E800042FE49EA0009114803F03DFE49EA000923
:100E9000B9F1000F0DD100E005E0A86840F61F7120
:100EA0008843A86005E0606D40F0200060654FF069
:100EB000010800BF002084F8500000BF404687E7CB
:100EC00000000450000104500003045000020450CC
:100ED0002DE9F84F05460C464FF0000A002000901F
:100EE000FE49E068884200D000E000BF00BF95F8EE
:100EF0005000012802D1022000F05CBA012085F8E0
:100F0000500000BF286803F008FE002872D1606816
:100F100005281AD86068022806D0032807D00428BC
:100F200008D005280DD108E00C2060600CE01220EC
:100F3000606009E01820606006E04FF48070606037
:100F400002E00620606000BF00BF2968D4E90020ED
:100F500001F1300CC0F3012B0CEB8B03D3F800C074
:100F600000F01F0E4FF01F0B0BFA0EFB2CEA0B0CC0
:100F700000F01F0BC2F3846E0EFA0BFE4CEA0E0C4F
:100F8000C3F800C000BF286803F0C7FD8146286889
:100F900003F0AAFD8046B9F1000F2AD1B8F1000F85
:100FA000FBD1A2682168286803F0D2FD6069296836
:100FB000C968C1F3C101490000FA01F7206904289A
:100FC00019D028682268216900F1600C0CEB8103BC
:100FD000D3F800C0DFF808B30CEA0B0C02F0F84BB2
:100FE0004BF0004B4BEA070B4CEA0B0CC3F800C06C
:100FF00000BFA8E0C2E10021286803F06CFDC0F347
:10100000120030B90021286803F065FDC0F3846048
:1010100007E00021286803F05EFD90FAA0F0B0FA26
:1010200080F02168C1F3120119B92168C1F384610C
:1010300004E0216891FAA1F1B1FA81F1884204D16A
:1010400000221146286803F09DFD0121286803F065
:1010500042FDC0F3120030B90121286803F03BFDC6
:10106000C0F3846007E00121286803F034FD90FAA2
:10107000A0F0B0FA80F02168C1F3120119B921681B
:10108000C1F3846104E0216891FAA1F1B1FA81F120
:10109000884204D100220121286803F073FD022157
:1010A000286803F018FDC0F3120030B90221286847
:1010B00003F011FDC0F3846007E00221286803F00B
:1010C0000AFD90FAA0F0B0FA80F02168C1F3120195
:1010D00019B92168C1F3846104E0216891FAA1F192
:1010E000B1FA81F1884204D100220221286803F07C
:1010F00049FD0321286803F0EEFCC0F3120030B96B
:101100000321286803F0E7FCC0F3846007E00321B3
:10111000286803F0E0FC90FAA0F0B0FA80F02168B3
:10112000C1F3120119B92168C1F3846104E0216897
:1011300091FAA1F1B1FA81F1884204D10022032190
:10114000286803F01FFD286803F0D8FC002870D140
:101150002868E2682168D0F8B0C0C1F312032CEA15
:10116000030C02F0180B5F4B23FA0BF30B404CEA15
:10117000030CC0F8B0C000BF5849E068884258D19D
:101180002368C3F312031BB92368C3F3846304E029
:10119000236893FAA3F3B3FA83F35B1C03F01F03F2
:1011A000092B3ED82368C3F312031BB92368C3F38A
:1011B000846304E0236893FAA3F3B3FA83F35B1C1C
:1011C00003F01F034FF0010C0CFA03FC2368C3F378
:1011D00012031BB92368C3F3846304E0236893FA02
:1011E000A3F3B3FA83F35B1C03F01F034CEA836C95
:1011F0002368C3F312031BB92368C3F3846304E0B9
:10120000236893FAA3F3B3FA83F35B1C03F01F0381
:1012100003EB43034FF0000B4BEA03534CEA030389
:101220003FE02368C3F3120323B92368C3F3846345
:1012300005E03BE0236893FAA3F3B3FA83F35B1C66
:1012400003F01F034FF0010C0CFA03FC2368C3F3F7
:1012500012031BB92368C3F3846304E0236893FA81
:10126000A3F3B3FA83F35B1C03F01F034CEA836C14
:101270002368C3F312031BB92368C3F3846304E038
:10128000236893FAA3F3B3FA83F35B1C03F01F0301
:101290000A3B03EB43034FF0007B4BEA03534CEA5A
:1012A00003031946A268286803F052FC0E4920681F
:1012B0000840A0B300BF0D48806800F0E07600BF92
:1012C0000B492068884233D106F4000040BB09492D
:1012D0002868884214D0084928680FE000007F4041
:1012E00000F0FF03FFFF0700000008800003045028
:1012F000000052C70000045000020450884243D14D
:1013000046F40001244803F037FC244800682449CF
:10131000B0FBF1F000EB40008000009004E01BE027
:1013200006E00098401E009000980028F9D12BE0BC
:101330001C492068884210D106F0807068B91A49AB
:101340002868884203D01949286888421CD146F091
:101350008071114803F010FC16E01549206888429E
:1013600012D106F4800078B90F49286888420BD161
:1013700046F48001084803F0FFFB05E0686D40F08B
:10138000200068654FF0010A00BF002085F850007A
:1013900000BF5046B0E500000003045024000020C8
:1013A000400D0300000084CB0000045000020450F4
:1013B0000100008018BCBDE8E08F000010B50446B5
:1013C0001548844213D100F0C9FA4FF4F062134972
:1013D0001348FEF729FF4FF4707210490E4800F0D1
:1013E00033FA1049087001200F49086013E00F48D4
:1013F000844210D100F0B2FA4FF470720C490D48DB
:10140000FEF712FF4FF4F0720949084800F01CFA89
:1014100001200949086010BDB80000205C140020BC
:101420005C230020380000202C0000205400002005
:10143000DC0C0020DC1B00203000002070477047CF
:101440002DE9F84F04464FF000090020009014B930
:10145000012000F003B9206920B12020005D01289F
:1014600000D100BF606D30B9204600F0FBF80020CD
:10147000A06584F8500020688168C1F3407131B1E3
:10148000206881686C4A1140816000BF00BF2068FD
:1014900003F03EFBA0B920688168684A114041F022
:1014A0008051816000BF664800686649B0FBF1F07A
:1014B000009002E00098401E009000980028F9D1AA
:1014C000206803F025FB48B9606D40F010006065AE
:1014D000A06D40F00100A0654FF00109206803F005
:1014E0001CFB0646606D00F0100000287BD1002E2A
:1014F000FCD1606D20F4807040F0020060652068CF
:1015000003F0FCFAD0B9504803F0F8FA82464F488D
:1015100003F0F4FA4AEA000A4D4803F0EFFA4AEA07
:10152000000ABAF1000F09D160684A49896821F4BC
:101530007C110143474A916000BF00BF607E616B30
:1015400041EA4030E1680843A16808432021095D71
:1015500040EA01452020005D012803D1A08C401EF7
:1015600045EA4045A06A28B1208D00F47070E16A18
:10157000084305432068C06837490840284321686C
:10158000C860206803F0C9FA8046206803F0ACFA0E
:101590000746B8F1000F2DD127BB207E002141EA7C
:1015A000803194F8300041EA40052068C06844F278
:1015B0000201884328432168C86094F83800012854
:1015C00012D1E06B40F00101206C0843616C0843CC
:1015D000A16C08432168096940F2FC7291430843F9
:1015E0002168086106E01FE02068006920F0010022
:1015F000216808612069012809D12068006B20F06A
:101600000F00E169491E08432168086305E020686E
:10161000006B20F00F0021680863606D20F002006D
:1016200040F00100606505E0606D40F0100060650D
:101630004FF0010948460CE7C0FFFF5FC0FFFF7F86
:1016400024000020400D030000000450000104505D
:10165000000204500003045007C0F0FF18BCBDE8AE
:10166000E08F000010B586B00446142101A8FEF7F3
:10167000F4FD6B49206888427CD16A480068401CB0
:10168000684908600846006801280DD100BF664817
:10169000C06C40F400506449C8640846C06C00F453
:1016A0000050009000BF00BF00BF5F48C06C40F01A
:1016B00004005D49C8640846C06C00F00400009056
:1016C00000BF00BF00BF0846C06C40F00100C86406
:1016D0000846C06C00F00100009000BF00BF00BFD2
:1016E0000846C06C40F00200C8640846C06C00F0B8
:1016F0000200009000BF00BF3F2001900B2002902D
:101700000020039001A9494800F0A2FBFF200190AE
:101710000B2002900020039001A94FF0904000F0B0
:1017200097FB032001900B2002900020039001A959
:101730003F4800F08DFB3F483F490860002048606B
:1017400000213D488160C160802101614900416103
:10175000890081610021C1614FF40051016200F0F4
:101760007FFA08B1FFF7EFFA00BF3348E064846204
:1017700053E0FFE73149206888424ED1294800688C
:10178000401C284908600846006801280DD100BFA8
:101790002548C06C40F400502349C8640846C06C1A
:1017A00000F40050009000BF00BF00BF1E48C06C96
:1017B00040F020001C49C8640846C06C00F02000BE
:1017C000009000BF00BF4FF4FF6001900B2002901B
:1017D0000020039001A91A4800F03AFB1548283070
:1017E0001849086000204860002116488160C160E7
:1017F0008021016149004161890081610021C1614D
:101800004FF40051016200F02BFA08B1FFF79BFA88
:1018100000BF0C48E064846200BF06B010BD000049
:10182000000004501400002000100240000800488E
:1018300000040048080002401C010020000204507F
:1018400000140048640100202DE9F04104460F46D1
:1018500090463C4803F03AF90646206803F05DF9EB
:1018600000286CD100BF94F85000012802D102205A
:10187000BDE8F081012084F8500000BF1EB1052EA4
:1018800001D0092E55D12046FFF79CF80546002DC2
:101890004AD1606D40F60161884340F48070606514
:1018A00029492068884201D1284800E02068216841
:1018B000884200D01EB9606D20F480106065606DB4
:1018C00000F4805020B1A06D20F00600A06501E07A
:1018D0000020A0651E48E16CC8621E48E16C0863E8
:1018E0001D48E16C48631C202168086000BF00208F
:1018F00084F8500000BF2068406840F01000216864
:1019000048602068C06840F001002168C860226813
:1019100002F1400143463A46E06C00F027FA0546E2
:10192000206803F00DF90BE000BF002084F85000A0
:1019300006E0012500BF002084F8500000E00225E9
:10194000284695E7000304500001045000000450AD
:101950007F0800082F0900081109000870B5044627
:1019600000BF94F85000012801D1022070BD012071
:1019700084F8500000BF03212046FEF7F3FE054621
:101980004DBB2068C06820F001002168C860E06C91
:1019900090F82500022808D1E06C00F023F80546F5
:1019A0001DB1606D40F0400060652068406820F027
:1019B00010002168486025B92046FEF7BFFF0546A4
:1019C00002E02046FEF7BAFF2DB9606D20F4885082
:1019D00040F00100606500BF002084F8500000BFA7
:1019E0002846C3E70146002291F82500022808D0C6
:1019F0000420C86300BF002081F8240000BF01203C
:101A000070470868006820F00E000B6818600868CE
:101A1000006820F001000B68186091F8440000F0A5
:101A20001C03012098400B6C5860012081F82500B0
:101A300000BF002081F8240000BF1046E0E770B529
:101A40000446002594F82500022803D00420E06312
:101A5000012520E02068006820F00E002168086061
:101A60002068006820F001002168086094F84400B4
:101A700000F01C0101208840216C4860012084F89E
:101A8000250000BF002084F8240000BFA06B10B127
:101A90002046A16B8847284670BD0000014609B961
:101AA000012070470868006820F001000A68106093
:101AB000294A086890420BD2284A0868801A1422E2
:101AC000B0FBF2F0800048642448083808640AE05B
:101AD000214A0868801A1422B0FBF2F080004864A2
:101AE0001D480838086400200A68106091F8440016
:101AF00000F01C02012090400A6C5060174A083A1E
:101B0000086C90420DD1D0F8A80091F8442002F062
:101B10001C030F229A409043104A083AC2F8A800CA
:101B20000CE00D48A030006891F8442002F01C033E
:101B30000F229A409043084AA03210600020C862E9
:101B4000086348638863C86381F8250000BF81F893
:101B5000240000BF00BFA4E70804024008000240C0
:101B600070B50446206C05682068066894F8440047
:101B700000F01C01042088402840E0B106F0040079
:101B8000C8B12068006800F0200028B9206800680B
:101B900020F004002168086094F8440000F01C0163
:101BA00004208840216C4860206B002856D02046D5
:101BB000216B884752E094F8440000F01C01022099
:101BC0008840284018B306F0020000B3206800687F
:101BD00000F0200040B92068006820F00A00216869
:101BE0000860012084F8250094F8440000F01C01EE
:101BF00002208840216C486000BF002084F8240047
:101C000000BFE06A50B32046E16A884726E094F8B6
:101C1000440000F01C01082088402840F0B106F084
:101C20000800D8B12068006820F00E002168086024
:101C300094F8440000F01C0101208840216C4860A9
:101C40000120E06384F8250000BF002084F8240010
:101C500000BF606B10B12046616B884770BD00000B
:101C600010B5014609B9012010BD3E4B08689842E5
:101C70000BD23D4B0868C01A1423B0FBF3F0800070
:101C800048643948083808640AE0364B0868C01AC6
:101C90001423B0FBF3F0800048643248083808642D
:101CA000022081F825000868026847F6F070824338
:101CB000D1E9020318430B6918434B6918438B6938
:101CC0001843CB6918430B6A184302430868026043
:101CD0008868B0F5804F3AD0234B083B086C984297
:101CE0001BD1D0F8A80091F8443003F01C040F2356
:101CF000A34098431C4BA033186091F8443003F084
:101D00001C0348689840184B083BD3F8A830184388
:101D1000154B083BC3F8A80019E01248A030006832
:101D200091F8443003F01C040F23A34098430D4B5B
:101D3000A033186091F8443003F01C0348689840C1
:101D4000084BA0331B681843064BA03318600020D3
:101D5000C863012081F82500002081F8240000BF1D
:101D600082E7000008040240080002402DE9F0412B
:101D700004460D4616461F464FF0000800BF94F873
:101D80002400012802D10220BDE8F081012084F85E
:101D9000240000BF94F8250001282CD1022084F8EB
:101DA00025000020E0632068006820F00100216821
:101DB00008603B46324629462046FEF75FFF206B0F
:101DC00030B12068006840F00E00216808600BE028
:101DD0002068006820F0040021680860206800681E
:101DE00040F00A00216808602068006840F00100A7
:101DF0002168086006E000BF002084F8240000BFCE
:101E00004FF002084046BFE770B5044600F030F9D5
:101E100006462546681C10B104480068054400BF0A
:101E200000F026F9801BA842FAD370BD20000020E4
:101E30007047000010B5044604480068204020B1F7
:101E4000024804602046FFF7F3FF10BD1404014070
:101E500078B503460022E5E0012696400D6805EAC4
:101E60000604002C7DD04D68012D08D04D68022D50
:101E700005D04D68112D02D04D68122D13D19868F0
:101E800056000325B540A8435600CD68B540284309
:101E90009860586801259540A8430D79C5F3001551
:101EA0009540284358600D7905F00305032D09D1AD
:101EB000D86A01259540A8430D79C5F3C005954022
:101EC0002843D862D86856000325B540A843560079
:101ED0008D68B5402843D8604D68022D02D04D680A
:101EE000122D13D1D60803F1200555F82600550709
:101EF000EE0E0F25B540A8435607F60E0D69B54006
:101F00002843D60803F1200545F826001868560036
:101F10000325B540A8430D7905F003055600B540EB
:101F2000284318604D6805F08055B5F1805F78D181
:101F300000BF3F4D2D6E45F001053D4E35663546DF
:101F40002D6E05F00105009500BF00BF4FEAB635C4
:101F5000960855F8260095072E0F0F25B540A84383
:101F600000E05EE0B3F1904F01D100251EE0314D5D
:101F7000AB4201D1012519E02F4DAB4201D1022521
:101F800014E02E4DAB4201D103250FE02C4DAB42A6
:101F900001D104250AE02B4DAB4201D1052505E016
:101FA000294DAB4201D1062500E007259607360FE3
:101FB000B5402843254D960845F82600244D28684D
:101FC000A0434D6805F48035B5F5803F00D120432E
:101FD0001F4D28602D1D2868A0434D6805F400356D
:101FE000B5F5003F00D12043194D2D1D28602D1D52
:101FF0002868A0434D6805F48015B5F5801F00D111
:102000002043134D083528602D1D2868A0434D68D6
:1020100005F40015B5F5001F00D120430C4D0C351B
:102020002860521C0D68D540002D7FF415AF78BD97
:10203000001002400004004800080048000C00485E
:102040000010004800140048001800480800014033
:1020500000040140024613690B400BB1012000E06F
:10206000002070470AB1816100E081627047000082
:10207000014800687047000018000020024692F8EE
:10208000410020282DD100BF92F84000012801D145
:1020900002207047012082F8400000BF242082F80F
:1020A00041001068006820F0010013681860106893
:1020B000006820F4805013681860106800680843B6
:1020C000136818601068006840F001001368186019
:1020D000202082F8410000BF002082F8400000BFAD
:1020E000D7E70220D5E710B502460B4692F841002B
:1020F00020282AD100BF92F84000012801D10220F7
:1021000010BD012082F8400000BF242082F8410069
:102110001068006820F001001468206010680168F1
:1021200021F4706141EA03211068016010680068C1
:1021300040F0010014682060202082F8410000BFB8
:10214000002082F8400000BFDAE70220D8E7000054
:1021500010B504460CB9012010BD94F8410028B90F
:10216000002084F84000204600F054F8242084F831
:1021700041002068006820F0010021680860606864
:1021800020F07060216808612068806820F40040B9
:1021900021688860E068012805D1A06840F400400B
:1021A0002168886004E0A06840F4044021688860E9
:1021B000E068022802D180022168486020684068F7
:1021C00013490843216848602068C06820F4004033
:1021D0002168C860D4E904010843A16940EA0120EC
:1021E0002168C860D4E907010843216808602068B5
:1021F000006840F001002168086000206064202031
:1022000084F841000020206384F8420000BFA3E767
:102210000080000210B586B00446142101A8FEF724
:102220001CF81949206888422CD100BF1748C06C9F
:1022300040F040001549C8640846C06C00F04000FA
:10224000009000BF00BF00F039F94FF4C04001908A
:102250001220029001200390032004900420059096
:1022600001A90B48FFF7F4FD00BF0848806D40F45A
:102270000010064988650846806D00F40010009043
:1022800000BF00BF06B010BD005400400010024067
:1022900000180048034800680349096808440149D8
:1022A00008607047180000202000002010B50024AE
:1022B000032000F0A9F8002000F008F808B101247C
:1022C00001E000F02FF8204610BD000070B5044674
:1022D000002511480068D8B10F4800684FF47A71A2
:1022E000B1FBF0F00D490968B1FBF0F6304601F0A2
:1022F000EFFF58B9102C07D200222146501E00F0E3
:1023000041F80748046004E0012502E0012500E0EF
:102310000125284670BD0000200000202400002078
:102320001C00002008B500BF0D48006E40F0010001
:102330000B4908660846006E00F00100009000BFDF
:1023400000BF00BF0846806D40F080508865084699
:10235000806D00F08050009000BF00BF08BD0000FD
:102360000010024001460846002809DB00F01F0368
:1023700001229A4043099B0003F1E023C3F80021A6
:1023800000BF70472DE9F05F80460D4616460027D6
:1023900005F00CFC074639462A46334601F0070093
:1023A000C0F1070ABAF1040F02D94FF0040A01E0A4
:1023B000C0F1070AD14600F1040ABAF1070F02D2B0
:1023C0004FF0000A01E0A0F1030AD4464FF0010AE1
:1023D0000AFA09FAAAF1010A0AEA020A0AFA0CFA46
:1023E0004FF0010B0BFA0CFBABF1010B0BEA030BEB
:1023F0004AEA0B042146404605F0E0FB00F000B835
:1024000030BCBDE8C09F000000BF00F00702064BD3
:1024100019684FF6FF031940044B0B4343EA0221AE
:10242000014B196000BF70470CED00E00000FA0599
:102430000246B2F5007F2AD11D48006800F4C06052
:10244000B0F5007F32D01A48006820F4C06040F434
:102450000070174B18601748006832235843164B1A
:10246000B0FBF3F0411C00E0491E1148406900F444
:102470008060B0F5806F01D10029F5D10C4840692A
:1024800000F48060B0F5806F10D1032070470848D9
:10249000006800F4C060B0F5806F07D004480068A1
:1024A00020F4C06040F48060014B18600020EDE72C
:1024B000007000402400002040420F0003484068A4
:1024C00040F400700149486070470000007000400F
:1024D0000248006800F4C0607047000000700040CF
:1024E0002DE9F84304460025A846208800F4006042
:1024F000B0F5006F30D1606E80B1B0F5800F13D0B1
:10250000B0F5000F03D0B0F5400F15D113E0FB4834
:10251000C06840F48030F949C8600FE00021201DF8
:1025200002F03CFF054609E0002104F1200002F022
:10253000FBFF054602E001E0012500BF00BF55B9E1
:10254000EE488830006820F44000616E0843EB4993
:10255000C1F8880000E0A846208800F48050B0F55B
:10256000805F30D1A06E80B1B0F1807F13D0B0F128
:10257000007F03D0B0F1407F15D113E0DF48C06881
:1025800040F48030DD49C8600FE00021201D02F0DA
:1025900005FF054609E0002104F1200002F0C4FF18
:1025A000054602E001E0012500BF00BF55B9D34850
:1025B0008830006820F04070A16E0843CF49C1F810
:1025C000880000E0A846206800F40030B0F5003F25
:1025D00077D14FF00009C948806D012121EA1070C0
:1025E00078B100BFC548806D40F08050C349886510
:1025F0000846806D00F08050009000BF00BF4FF093
:102600000109BF48006840F48070BD490860FFF7C9
:102610002FFD074606E0FFF72BFDC01B022801D95E
:10262000032505E0B648006800F480700028F2D069
:1026300000BF85BBB1489030006800F44076D6B149
:10264000D4F88400B04216D0AC489030006820F432
:102650004076AA48D0F8900040F48030A749C1F8ED
:1026600090000846D0F8900020F48030C1F8900027
:102670000846C0F8906006F00100A8B1FFF7F8FC2A
:10268000074609E0FFF7F4FCC01B41F2883188429D
:1026900002D9032507E017E098489030006800F061
:1026A00002000028EED000BF65B994489030006861
:1026B00020F44070D4F8841008439049C1F8900089
:1026C00003E00CE0A84600E0A846B9F1010F05D1EF
:1026D0008A48806D20F080508849886500BF207846
:1026E00000F0010048B185488830006820F0030000
:1026F000A16B08438149C1F88800207800F00200EE
:10270000022809D17D488830006820F00C00E16B78
:1027100008437A49C1F88800207800F004000428B2
:1027200009D176488830006820F03000216C0843D9
:102730007249C1F88800207800F00800082809D103
:102740006E488830006820F0C000616C08436B4917
:10275000C1F88800207800F01000102809D16748DF
:102760008830006820F44070A16C08436349C1F8C8
:102770008800207800F02000202809D15F488830A8
:10278000006820F44060E16C08435C49C1F88800AF
:10279000208800F40070B0F5007F09D157488830D8
:1027A000006820F44020E16D08435449C1F88800D6
:1027B000208800F48060B0F5806F09D14F488830E0
:1027C000006820F44010216E08434C49C1F888008D
:1027D000207800F04000402809D14848883000683F
:1027E00020F44050216D08434449C1F88800207806
:1027F00000F08000802809D140488830006820F42B
:102800004040616D08433D49C1F88800208800F4CC
:102810008070B0F5807F09D138488830006820F496
:102820004030A16D08433549C1F88800208800F484
:102830000050B0F5005F1FD130488830006820F0AC
:102840004060E16E08432D4988310860E06EB0F1C8
:10285000006F06D12948C06840F480102749C8603D
:102860000AE0E06EB0F1806F06D10121201D02F078
:1028700095FD054605B1A846206800F40020B0F596
:10288000002F1FD11D488830006820F04060216F64
:1028900008431A4988310860206FB0F1006F06D1F3
:1028A0001648C06840F480101449C8600AE0206FE0
:1028B000B0F1806F06D10121201D02F06FFD0546A9
:1028C00005B1A846206800F48020B0F5802F24D1FF
:1028D0000A488830006820F04060616F084307496B
:1028E00088310860606FB0F1006F0BD10348C06899
:1028F00040F480100149C8600FE000000010024061
:1029000000700040606FB0F1806F06D10121201D82
:1029100002F044FD054605B1A846208800F4804039
:10292000B0F5804F1FD12248006820F04050A16FC1
:1029300008431F490860A06FB0F1805F07D10221F2
:10294000201D02F02BFD05466DB1A8460BE0A06FDF
:10295000B0F1005F07D1022104F1200002F0E4FD94
:10296000054605B1A846208800F40040B0F5004FA8
:1029700009D10F48006820F08040E16F08430C49FE
:102980008839C1F88800206800F48030B0F5803FB5
:102990000AD10748006820F00040D4F880100843AE
:1029A00003498839C1F888004046BDE8F883000033
:1029B000881002402DE9F04104460D4614B901206B
:1029C000BDE8F0815548006800F00700A8420ED22B
:1029D0005248006820F00700284350490860084624
:1029E000006800F00700A84201D00120E8E7207845
:1029F00000F00100002840D06068032806D1484854
:102A0000006800F00070D8B90120D9E7606802289A
:102A100006D14348006800F4003088B90120CFE7B0
:102A2000606830B93E48006800F0020040B90120FB
:102A3000C6E73B48006800F4806008B90120BFE7A2
:102A40003748806820F00300616808433449886093
:102A5000FFF70EFB064608E0FFF70AFB801B41F27A
:102A60008831884201D90320AAE72D48806800F008
:102A70000C006168B0EB810FEED1207800F002000D
:102A8000022807D12648806820F0F000A16808439A
:102A9000234988602148006800F00700A8420ED949
:102AA0001E48006820F0070028431C4908600846BB
:102AB000006800F00700A84201D0012080E72078DC
:102AC00000F00400042807D11548806820F4E06075
:102AD000E168084312498860207800F0080008285F
:102AE00008D10F48806820F46050216940EAC10095
:102AF0000B49886000F046F809498968C1F3031161
:102B0000084A515C01F01F01C840074908600748A6
:102B10000068FFF7DBFB0746384651E7002002401C
:102B200000100240E8AE0008240000201C00002035
:102B300001480068704700002400002000B5FFF73E
:102B4000F7FF05498968C1F30221044A515C01F08D
:102B50001F01C84000BD000000100240F8AE000890
:102B600000B5FFF7E5FF05498968C1F3C221044AB2
:102B7000515C01F01F01C84000BD00000010024080
:102B8000F8AE0008F0B500230020DFF8D4C0DCF870
:102B900008C00CF00C01DFF8C8C0DCF80CC00CF069
:102BA000030719B10C291ED1012F1CD1DFF8B0C0C9
:102BB000DCF800C00CF0080CBCF1000F06D1DFF807
:102BC000A0C0DCF894C0CCF3032305E0DFF890C08C
:102BD000DCF800C0CCF30313DFF888C05CF82330C6
:102BE00041B9184606E0042901D11F4802E008292E
:102BF00000D11E480C2932D1DFF864C0DCF80CC0CB
:102C00000CF00304012C09D0022C02D0032C04D1B7
:102C100001E0154A04E0154A02E000BF1A4600BF71
:102C200000BFDFF83CC0DCF80CC0CCF3021C0CF198
:102C30000106DFF82CC0DCF80CC0CCF3062C0CFB32
:102C400002FCBCFBF6F2DFF818C0DCF80CC0CCF3D9
:102C5000416C0CF1010C4FEA4C05B2FBF5F0F0BDF4
:102C60000010024000AF00080024F40000127A00B7
:102C70002DE9F843044614B90120BDE8F883F9486A
:102C8000806800F00C06F748C06800F00307207861
:102C900000F01000102877D11EB10C2E76D1012F34
:102CA00074D1F048006800F0020018B1A06908B9BA
:102CB0000120E2E7EB48216A006800F0080020B13B
:102CC000E848006800F0F00005E0E648943000684D
:102CD00000F47060000981421FD9206A02F0D6FC1E
:102CE00008B10120C9E700BFDE48006840F00800D5
:102CF000DC4908600846006820F0F000216A0843BB
:102D0000D849086000BF0846406820F47F40E16968
:102D100040EA0120D34948601FE000BFD148006865
:102D200040F00800CF4908600846006820F0F00035
:102D3000216A0843CB49086000BF0846406820F478
:102D40007F40E16940EA0120C64948602EB9206A07
:102D500002F09CFC08B101208FE7FFF713FFC14987
:102D60008968C1F30311C04A515C01F01F01C840DA
:102D7000BE490860BE480068FFF7A8FA8046B8F16F
:102D8000000F4ED0404678E74BE0FFE7A06980B3E4
:102D9000B448006840F00100B2490860FFF768F9E4
:102DA000054606E0FFF764F9401B022801D903201D
:102DB00063E7AC48006800F002000028F2D000BFD2
:102DC000A848006840F00800A64908600846006866
:102DD00020F0F000216A0843A249086000BF0846BD
:102DE000406820F47F40E16940EA01209D49486045
:102DF00017E0FFE79B48006820F001009949086050
:102E0000FFF736F9054606E0FFF732F9401B0228C6
:102E100001D9032031E79348006800F00200002840
:102E2000F2D1207800F0010000285CD0082E03D0F9
:102E30000C2E0AD1032F08D18A48006800F4003014
:102E400088B3606878BB012017E700BF6068B0F501
:102E5000803F06D18348006840F480308149086093
:102E60001AE06068B0F5A02F0BD17E48006840F4EE
:102E700080207C4908600846006840F48030086083
:102E80000AE07848006820F48030764908600846F7
:102E9000006820F48020086000BF606890B1FFF7F0
:102EA000E7F8054607E01EE0FFF7E2F8401B64285C
:102EB00001D90320E1E66B48006800F400300028E7
:102EC000F2D010E0FFF7D4F8054606E0FFF7D0F89F
:102ED000401B642801D90320CFE66248006800F453
:102EE00000300028F2D1207800F00200022852D1F0
:102EF000042E03D00C2E14D1022F12D15948006891
:102F000000F4806018B1E06808B90120B5E65548C2
:102F1000406820F0F850217C40EA01605149486047
:102F200039E0E06800B34F48006840F480704D49D4
:102F30000860FFF79DF8054606E0FFF799F8401B8B
:102F4000022801D9032098E64648006800F4806012
:102F50000028F2D04348406820F0F850217C40EA35
:102F600001604049486016E03E48006820F48070E7
:102F70003C490860FFF77CF8054606E0FFF778F863
:102F8000401B022801D9032077E63648006800F488
:102F900080600028F2D1207800F00800082836D19F
:102FA0006069D0B12F489430006840F001002D498D
:102FB000C1F89400FFF75CF8054606E0FFF758F803
:102FC000401B022801D9032057E6264894300068A8
:102FD00000F002000028F1D019E022489430006887
:102FE00020F001001F49C1F89400FFF741F80546A1
:102FF00006E0FFF73DF8401B022801D903203CE61C
:1030000018489430006800F002000028F1D12078C0
:1030100000F00400042872D14FF000091148806DBF
:1030200000F0805078B900BF0E48806D40F08050AD
:103030000C4988650846806D00F08050009000BF04
:1030400000BF4FF001090B48006800F4807000BB1E
:103050000848006840F4807006490860FFF708F8E7
:10306000054610E000100240E8AE000824000020F1
:103070001C00002000700040FEF7FAFF401B0228F1
:1030800001D90320F9E5B548006800F480700028F4
:10309000F2D000BFA068012808D1B148006840F014
:1030A0000100AF499039C1F8900021E0A0680528DF
:1030B0000FD1AB48006840F00400A9499039C1F82D
:1030C00090000846D0F8900040F00100C1F8900050
:1030D0000EE0A348006820F00100A1499039C1F832
:1030E00090000846D0F8900020F00400C1F890004D
:1030F00000BFA068A0B1FEF7BBFF054609E02EE0C7
:10310000FEF7B6FF401B41F28831884201D9032007
:10311000B3E59348006800F002000028F0D012E008
:10312000FEF7A6FF054608E0FEF7A2FF401B41F2AE
:103130008831884201D903209FE58948006800F062
:1031400002000028F0D1B9F1010F07D1844890386E
:10315000806D20F0805082499039886500BFA06A58
:1031600000287DD0A06A02287BD17D489038C768AE
:1031700007F00301E06A814228D107F07001206B5B
:10318000401EB1EB001F21D107F4FE41606BB1EB93
:10319000002F1BD107F40031A06B072801D00120BC
:1031A00000E00020814211D107F4C001A08F01226C
:1031B000C2EB5000B1EB405F08D107F0C061402086
:1031C000005DC2EB5000B1EB406F6CD00C2E68D0AC
:1031D00063489038006800F0806028B960489038F3
:1031E000006800F0805008B1012046E55C48903846
:1031F000006820F080705A4990390860FEF738FF67
:10320000054606E0FEF734FF401B022801D90320E3
:1032100033E553489038006800F000700028F1D181
:10322000D4E90B10401E41EA0011606B41EA002115
:10323000A08F0122C2EB500041EA40514020005DC6
:10324000C2EB500041EA4061A06B000941EA4040F6
:1032500043499039C968434A11400843404901E055
:1032600066E046E09039C8600846006840F080702B
:1032700008600846C06840F08070C860FEF7F8FE3D
:10328000054606E0FEF7F4FE401B022801D90320A4
:10329000F3E433489038006800F000700028F1D063
:1032A0005AE00120E9E42E489038006800F00070F0
:1032B000F0BB2B489038006840F080702849903966
:1032C00008600846C06840F08070C860FEF7D0FE15
:1032D000054606E0FEF7CCFE401B022801D903207C
:1032E000CBE41F489038006800F000700028F1D04F
:1032F00032E00C2E2ED01A489038006820F08070F2
:103300001749903908600846006800F0205020B93D
:103310000846C06820F00300C86011489038C068B3
:10332000114908400E499039C860FEF7A1FE00E03F
:1033300012E0054606E0FEF79BFE401B022801D97D
:1033400003209AE406489038006800F000700028D6
:10335000F1D101E0012090E400208EE400700040F3
:10336000901002408C809DF9FFFFEEFE10B50446E0
:10337000FDF792FB10BD0000F0B589B004460E4683
:103380000027032084F83400606C032820D0B6F5B1
:10339000805F04D1A06B40F08050A0631CE0B6F5C4
:1033A000006F07D1204603F00AF90546A06B2843B9
:1033B000A06311E03EB9204603F0CDF80546A06BAE
:1033C0002843A06308E0A06B40F00060A06303E026
:1033D000A06B40F08050A063A06B20B1164821681C
:1033E0008863012713E060680390A0680490E06898
:1033F0000590069660690790A069089006A807C81E
:103400008DE80700206803A90EC902F074FD4FF48F
:103410000071206802F0CAF9054635B106482168F6
:103420008863A06B2843A0630127012084F834003F
:10343000384609B0F0BD0000FF05400070470000AD
:1034400010B50246506E800F0870506EC0F3836056
:103450004870506EC0F301608870506E000CC870E8
:10346000B2F86400000A087192F864004871906E26
:10347000000DC880906EC0F3034008726820805A27
:10348000C0F3C03048726820805AC0F38030887220
:103490006820805AC0F34030C8726820805AC0F358
:1034A0000030087300204873506C002836D1682023
:1034B000805A8005030DD06E43EA90700861D06E8B
:1034C000C0F3C2600875D06EC0F302604875D06E5C
:1034D000C0F342508875D06EC0F38240C875D06E7C
:1034E000C0F3C23008760869401C50650B7E506DF1
:1034F00003F007039B1C01249C4060435065087A3D
:1035000000F00F03012098409065D2E915035B0A93
:103510005843D0654FF40073136621E0506C0128C6
:1035200013D16820805C8006830AD06E43EA104085
:1035300008610869401C83025365536DD3654FF4DD
:1035400000739365936D13660AE02E4813689863C1
:10355000906B40F080509063012082F8340010BDE1
:103560006C20805AC0F3803001F8190F6C20805A0B
:10357000C0F3C61048706C20805C00F07F0088703B
:10358000106FC00FC870106FC0F341700871106FDA
:10359000C0F382604871106FC0F383508871106F60
:1035A000C0F34050C87100200872106FC0F3004093
:1035B00048727020805AC0F3C03088727020805AE0
:1035C000C0F38030C8727020805AC0F34030087356
:1035D0007020805AC0F3003048737020805AC0F3C6
:1035E000812088737020805AC0F30120C873702036
:1035F000805CC0F34600087401204874193900202B
:10360000ADE70000FF0540000246506C0860906C7A
:103610004860D06C8860106DC860506D0861906D16
:103620004861D06D8861106EC86100207047F8B5A0
:103630000446002000906946204602F074FF0546CB
:1036400015B1A06B2843A0630098C0F34326304611
:10365000F8BD000070B50446256B2068406BC0F3D0
:10366000C03030B105F0080018B1204602F036FF36
:10367000EDE02068406BC0F30020002862D04FF4DA
:103680008070216888632068C06B4CF23A118843CF
:103690002168C8632068C06A20F001002168C86200
:1036A00005F0080038B305F0020010B905F020005D
:1036B00050B1206802F0BEF906462EB1A06B30432F
:1036C000A0632046FFF7BAFE40F23A5021688863B3
:1036D000012084F834000020206305F0010010B9B7
:1036E00005F0020018B1204600F066FAAFE020466F
:1036F00000F067FAABE005F080000028B8D005F0D4
:10370000200050B1206802F095F906462EB1A06B5A
:103710003043A0632046FFF791FE05F0010000282A
:10372000A6D105F002000028A2D12068C06A20F0CE
:1037300008002168C862012084F83400204600F0A7
:1037400040FA84E02068406BC0F3803030B105F06F
:10375000080018B1204602F066FF78E02068406B50
:1037600000F03A0008B1012000E0002000286ED0EF
:103770002068406BC0F3400018B1A06B40F002001D
:10378000A0632068406BC0F3C00018B1A06B40F08C
:103790000800A0632068406BC0F3401018B1A06B14
:1037A00040F02000A0632068406BC0F3001018B107
:1037B000A06B40F01000A06340F23A50216888638B
:1037C0002068C06B20F49D702168C863206802F0F7
:1037D00031F9A16B0843A06305F0080040B1012056
:1037E00084F83400002020632046FFF727FE2EE0F7
:1037F00005F0800000B305F0100010B905F02000BE
:1038000050B11348E16B8863E06BFEF718F998B18B
:10381000E06B02F0BEFC1AE005F0010010B905F003
:10382000020050B10B48216C8863206CFEF707F949
:1038300010B1206C02F080FC09E00020A0630120A0
:1038400084F83400002020632046FFF78FFD70BD10
:10385000936100083961000810B504460CB90120D5
:1038600010BD94F8340020B900202077204600F0E5
:103870006DF8032084F83400204600F00BF808B1FE
:103880000120EDE70020A0632063012084F83400CC
:103890000020E5E770B58AB004460020049005904A
:1038A0000690079008907620099007A807C88DE831
:1038B0000700206804A90EC902F01DFB064616B1D8
:1038C00001200AB070BD2068406820F48070216833
:1038D0004860206802F029FB06460EB10120F0E79F
:1038E0002068406840F4807021684860204602F0FB
:1038F0008FFD05463DB1012084F83400A06B2843BC
:10390000A0630120DDE7204602F001FD05463DB140
:10391000012084F83400A06B2843A0630120D0E785
:103920004FF40071206801F041FF05464DB1064893
:1039300021688863A06B2843A063012084F83400C9
:10394000BFE70020BDE70000FF05400010B586B0CE
:103950000446142101A8FCF780FC474920688842EE
:103960007ED100BF4548006E40F480604349086640
:103970000846006E00F48060009000BF00BF00BFEA
:103980000846C06C40F00400C8640846C06C00F0F3
:103990000400009000BF00BF00BF0846C06C40F0AC
:1039A0000800C8640846C06C00F00800009000BF22
:1039B00000BF4FF4F85001900220029000200390C5
:1039C000032004900C20059001A92D48FEF740FA31
:1039D0000420019002200290002003900320049014
:1039E0000C20059001A92748FEF732FA26482749FE
:1039F000086007204860002124488160C160802160
:103A0000016189004161890081610021C161016218
:103A1000FEF726F908B1FDF796F900BF1B482064B0
:103A2000846200BF184814301949086007204860B4
:103A30001021174881600021C16080210161890047
:103A40004161890081610021C1610162FEF708F9CD
:103A500008B1FDF778F900BF0D48E063846200E02B
:103A600008E000BF002205213120FEF78BFC312049
:103A7000FEF778FC06B010BD00280140001002409F
:103A800000080048000C0048440402407C0200206A
:103A9000C40200202DE9F04387B004460F4691464A
:103AA0001D46C8463FB9A06B40F00060A0630120EE
:103AB00007B0BDE8F08394F83400012874D10020E9
:103AC000A06308EB0501E06D814205D9A06B40F0D1
:103AD0000070A0630120EBE7032084F8340000208D
:103AE0002168C8623148216CC8623148216C486342
:103AF0000020216C88636A029308226802F1800129
:103B00003A46206CFEF732F950B12A4821688863A2
:103B1000A06B40F08040A063012084F83400C7E728
:103B20002068C06A40F008002168C862606C012803
:103B300001D04FEA48284FF0FF3001906802029010
:103B40009020039002200490002005900120069010
:103B500001A9206801F0C4FF012D07D9822020634C
:103B60004146206801F08AFE064606E08120206377
:103B70004146206801F09EFE064666B10D48216868
:103B80008863A06B3043A063012084F834000020D8
:103B9000206301208CE72068C06B40F49570216899
:103BA000C863002084E7FFE7022081E7F160000896
:103BB00085600008FF05400010B50446FCF7C2FF11
:103BC00010BD10B50446FCF7DDFF10BD2DE9F04334
:103BD00087B00446884691461D464F46B8F1000F0F
:103BE00007D1A06B40F00060A063012007B0BDE8E2
:103BF000F08394F83400012874D10020A06379196F
:103C0000E06D814205D9A06B40F00070A0630120F7
:103C1000ECE7032084F8340000202168C8623248B1
:103C2000E16BC8623148E16B48630020E16B886357
:103C3000606C012800D07F02012D07D9A0202063ED
:103C40003946206801F014FF064606E09020206304
:103C50003946206801F028FF064666B124482168ED
:103C60008863A06B3043A063012084F834000020F7
:103C700020630120BAE72068C06A40F0080021688C
:103C8000C86269028B08216801F180024146E06B3D
:103C9000FEF76CF868B1164821688863A06B40F0A5
:103CA0008040A063012084F83400002020630120BC
:103CB0009CE74FF0FF300190680202909020039043
:103CC0000020049005900120069001A9206801F0D1
:103CD00007FF2068C06B40F01A002168C86300200D
:103CE00084E7FFE7022081E7816100088560000822
:103CF000FF05400070B504460025606D40B1606D61
:103D0000FDF770FE20B1206E40F010002066012506
:103D1000A06D40B1A06DFDF765FE20B1206E40F0B2
:103D20001000206601252068406820F0030021680B
:103D30004860012084F85D00284670BD704770B56A
:103D400004460CB9012070BD606A00B900BF0021B3
:103D5000A16294F85D0028B9002084F85C00204638
:103D600000F04EF8022084F85D002068006820F022
:103D7000400021680860E068B0F5E06F01D90025D7
:103D800001E04FF48055E068B0F5706F05D0E06851
:103D9000B0F5E06F01D00021A162206B40B9E0686E
:103DA000B0F5E06F02D90221216301E00121216316
:103DB000D4E9010108432169084361690843218B63
:103DC00001F400710843E1690843216A0843A16ACC
:103DD0000843216808600421A06901EA1040616A73
:103DE0000843616B0843E168084328432168486041
:103DF00000202066012084F85D000020A3E7000079
:103E000010B586B00446142101A8FCF726FA25490E
:103E10002068884243D100BF2348006E40F48050A0
:103E2000214908660846006E00F48050009000BFEB
:103E300000BF00BF0846C06C40F01000C8640846D0
:103E4000C06C00F01000009000BF00BF4FF4304085
:103E5000019002200290002003900320049005208E
:103E6000059001A91148FDF7F3FF114811490860B9
:103E70000120486000210F488160C16080210161FC
:103E8000002141618161C1610162FDF7E9FE08B174
:103E9000FCF759FF00BF0748A065846200BF06B069
:103EA00010BD00000030014000100240001000482A
:103EB0001C000240700300202DE9F04104460E462C
:103EC00015460027A06870B96068B0F5827F0AD1F6
:103ED000042084F85D002B4632463146204600F02F
:103EE000DDF8BDE8F08100BF94F85C00012801D145
:103EF0000220F6E7012084F85C0000BF94F85D0022
:103F0000012801D0022794E006B10DB9012790E005
:103F1000042084F85D00002020662664A4F8445044
:103F2000A4F84650E0642065A087E087A068B0F55B
:103F3000004F05D12068006820F4804021680860A7
:103F40002068406820F4005021684860E068B0F5BF
:103F5000E06F06D92068406820F4805021684860EE
:103F60002EE02068406840F4805021684860A06DD1
:103F70008069B0F5806F23D12068406820F48050BC
:103F800021684860B4F8460000F0010058B9206884
:103F9000406820F4005021684860B4F846004010A2
:103FA000A4F846000CE02068406840F40050216806
:103FB0004860B4F84600012101EB6000A4F8460017
:103FC0001F48A16D08631F48A16DC8621E48A16DFE
:103FD00048630020A16D8863B4F84630D4F800C06F
:103FE0000CF10C01226CA06DFDF7C0FE40B1206EFB
:103FF00040F0100020660127012084F85D0018E0E1
:104000002068006800F04000402805D02068006863
:1040100040F04000216808602068406840F02000BF
:10402000216848602068406840F0010021684860CD
:1040300000BF00BF002084F85C0000BF384650E796
:104040002D690008496900080569000810B5044693
:104050000C48FFF74FFE4FF470720B490B48FCF70A
:10406000E3F84FF4707208490948FCF7DDF84FF4A3
:10407000707205490348FFF71FFF012005490860DA
:1040800010BD00000C0300209C1000209C1F00208D
:104090001C09002034000020704700002DE9F04783
:1040A00004460E4617461D464FF0000A00BF94F81E
:1040B0005C00012802D10220BDE8F087012084F8CD
:1040C0005C0000BF94F85D80D4F80490B8F1010F53
:1040D0000AD0B9F5827F04D1A06810B9B8F1040FF5
:1040E00002D04FF0020ADFE00EB107B115B94FF070
:1040F000010AD9E094F85D00042802D0052084F874
:104100005D0000202066A663A587E5872764A4F8E4
:104110004450A4F84650E06420652068406820F4CC
:10412000C04021684860E068B0F5E06F06D92068BB
:10413000406820F48050216848604DE02068406865
:1041400040F4805021684860606D8069B0F5806FF0
:1041500019D194F83C0000F0010048B9206840688B
:1041600020F4804021684860E08F4010E0870AE03A
:104170002068406840F4804021684860E08F012159
:1041800001EB6000E087A06D8069B0F5806F23D1FE
:104190002068406820F4805021684860B4F84600E8
:1041A00000F0010058B92068406820F400502168F0
:1041B0004860B4F846004010A4F846000CE02068BF
:1041C000406840F4005021684860B4F8460001217E
:1041D00001EB6000A4F8460094F85D00042806D1C5
:1041E0003548A16D08633548A16DC86205E03448C3
:1041F000A16D08633348A16DC8623348A16D48635F
:104200000020A16D8863B4F84630D4F800C00CF1EA
:104210000C01226CA06DFDF7A9FD48B1206E40F0A5
:10422000100020664FF0010A012084F85D003BE099
:104230002068406840F00100216848600020616DFE
:104240000863616DC862616D4863616D8863E38F67
:10425000D4F800C00CF10C02A16B606DFDF786FD77
:1042600048B1206E40F0100020664FF0010A012096
:1042700084F85D0018E02068006800F040004028E5
:1042800005D02068006840F0400021680860206880
:10429000406840F02000216848602068406840F095
:1042A00002002168486000BF00BF002084F85C0065
:1042B00000BF504600E700002D690008496900086A
:1042C0003B690008AB690008056900087047704742
:1042D00070B504462546681EB0F1807F01D30120E9
:1042E0000FE0681E4FF0E02148610F214FF0FF30D2
:1042F00003F064FC00204FF0E02188610720086192
:10430000002070BD704770477047000030B502460E
:104310000B4600BF92F83C00012801D1022030BDBD
:10432000012082F83C0000BF022082F83D001068A6
:104330004168106884681F4D1068A84203D01E4D64
:104340001068A84203D121F470015868014321F09C
:1043500070011868014310684160164D1068A8424A
:1043600017D01068B0F1804F13D0144D1068A842D8
:104370000FD0134D1068A8420BD0124D1068A84200
:1043800007D00D4D1068A84203D00F4D1068A84209
:1043900005D124F0800498680443106884600120EB
:1043A00082F83D0000BF002082F83C0000BF00BF43
:1043B000B5E70000002C014000340140000400403B
:1043C00000080040000C00400040014010B50446C9
:1043D0000CB9012010BD94F83D0028B9002084F8E4
:1043E0003C00204600F00CF8022084F83D00211D1E
:1043F000206802F02DFD012084F83D000020E9E74F
:1044000038B504462068B0F1804F0DD100BF144884
:10441000806D40F00100124988650846806D00F00B
:104420000100009000BF19E00E492068884215D1B4
:1044300000BF0B48806D40F00200094988650846BE
:10444000806D00F00200009000BF00BF0022114606
:104450001D20FDF797FF1D20FDF784FF38BD0000EC
:1044600000100240000400400146022081F83D0097
:1044700008688068094B00EA0302062A08D0B2F5F2
:10448000803F05D00868006840F001000B681860A4
:10449000012081F83D000020704700000700010066
:1044A00001460868C06840F001000B68D8600868E1
:1044B0008068084B00EA0302062A08D0B2F5803F64
:1044C00005D00868006840F001000B681860002003
:1044D00070470000070001002DE9F04104460D4639
:1044E00000BF94F83C00012802D10220BDE8F08111
:1044F000012084F83C0000BF022084F83D002068C1
:1045000086683748064026F47F462068866028681B
:10451000502833D00CDC202850D004DC00284BD0AD
:10452000102851D149E0302849D040284CD139E0F9
:1045300060282DD0702807D0B0F5805F03D0B0F58B
:10454000005F41D10DE040E0D5E902136A682068C0
:1045500002F0F5FC2068866846F0770620688660E1
:1045600033E0D5E902136A68206802F0E8FC2068AD
:10457000806840F480402168886026E0EA686968C5
:10458000206802F0A5FE5021206802F0E3FC1CE048
:10459000EA686968206802F0AEFE6021206802F0D7
:1045A000D9FC12E0EA686968206802F091FE4021B7
:1045B000206802F0CFFC08E000BF00BF00BF296800
:1045C000206802F0C7FC00E000BF00BF012084F8B3
:1045D0003D0000BF002084F83C0000BF00BF85E71D
:1045E00088FFFEFF704710B5044620680069C0F3DD
:1045F0004000D8B12068C068C0F34000B0B16FF08F
:10460000020021680861012020772068806900F09D
:10461000030018B12046FFF7E5FF05E0204600F053
:1046200009F9204600F0CEF90020207720680069C3
:10463000C0F38000D8B12068C068C0F38000B0B17A
:104640006FF00400216808610220207720688069EB
:1046500000F4407018B12046FFF7C4FF05E0204683
:1046600000F0E8F8204600F0ADF90020207720683F
:104670000069C0F3C000D8B12068C068C0F3C000B2
:10468000B0B16FF00800216808610420207720682D
:10469000C06900F0030018B12046FFF7A3FF05E052
:1046A000204600F0C7F8204600F08CF90020207763
:1046B00020680069C0F30010D8B12068C068C0F35A
:1046C0000010B0B16FF01000216808610820207759
:1046D0002068C06900F4407018B12046FFF782FFDF
:1046E00005E0204600F0A6F8204600F06BF9002017
:1046F00020772068006900F0010058B12068C06888
:1047000000F0010030B16FF001002168086120461F
:1047100000F059F920680069C0F3C01058B1206852
:10472000C068C0F3C01030B16FF08000216808612C
:104730002046FFF7E8FD20680069C0F3002058B16B
:104740002068C068C0F3C01030B16FF48070216879
:1047500008612046FFF7D6FD20680069C0F380108D
:1047600058B12068C068C0F3801030B16FF04000CD
:1047700021680861204600F027F920680069C0F32D
:10478000401058B12068C068C0F3401030B16FF0DD
:104790002000216808612046FFF7B6FD10BD70B506
:1047A00004460E46154600BF94F83C00012801D18E
:1047B000022070BD012084F83C0000BF022084F874
:1047C0003D000C2D1AD005DC4DB1042D0CD0082D68
:1047D00023D10EE0102D16D0142D1ED118E0314635
:1047E000206802F0C1FB19E03146206802F012FC9B
:1047F00014E03146206802F067FC0FE03146206883
:1048000002F0BCFC0AE03146206802F0F1FC05E051
:104810003146206802F024FD00E000BF00BF012007
:1048200084F83D0000BF002084F83C0000BF00BFBA
:10483000BFE7000010B504461648844229D1207F06
:10484000082826D114480078012813D14FF470723B
:1048500012491348FCF7F8FF124908704FF47072C0
:1048600011491248FFF728FB012011490870002068
:10487000094908700F490968481CC11700EB91717C
:104880008910A0EB81010B4A11601046006802F00C
:10489000DDF910BDF80300203A0000205C14002070
:1048A000B8000020380000209C1000200C030020DD
:1048B000390000202800002010B504460CB9012062
:1048C00010BD94F83D0028B9002084F83C00204633
:1048D00000F00CF8022084F83D00211D206802F051
:1048E000B7FA012084F83D000020E9E77047000096
:1048F00070B504460E4636B1042E0BD0082E10D0EB
:104900000C2E1CD114E02068C06840F00200216821
:10491000C86015E02068C06840F004002168C860E5
:104920000EE02068C06840F008002168C86007E019
:104930002068C06840F010002168C86000E000BF37
:1049400000BF01223146206802F0E8FA17492068CA
:1049500088420FD01649206888420BD0154920683C
:10496000884207D014492068884203D01349206840
:10497000884201D1012000E0002028B12068406C6D
:1049800040F4004021684864206880680C4900EACF
:104990000105062D08D0B5F5803F05D020680068D8
:1049A00040F0010021680860002070BD002C01402B
:1049B00000340140004001400044014000480140F3
:1049C0000700010070477047704710B504460CB9E6
:1049D000012010BDA06900B100E000BF606F28B9E0
:1049E000002084F87000204600F02AF82420606738
:1049F0002068006820F0010021680860204602F06D
:104A000041FD012800D1E4E7606A10B1204602F0C0
:104A100086FC2068406820F4904021684860206847
:104A2000806820F02A00216888602068006840F0D3
:104A3000010021680860204602F0EDFCC9E7000093
:104A400010B586B00446142101A8FBF706FC1849EE
:104A5000206888422AD100BF1648006E40F480408A
:104A6000144908660846006E00F48040009000BFBC
:104A700000BF00BF0846C06C40F00100C864084693
:104A8000C06C00F00100009000BF00BF4FF4C06098
:104A90000190022002900020039003200490072040
:104AA000059001A94FF09040FDF7D2F906B010BD76
:104AB000003801400010024000BFFEE78168024A52
:104AC0001140491C81607047C0FFFF7F0146886824
:104AD00000F01F007047024602F1600000EB810306
:104AE000186800F0F840704701468868C0F3C000BD
:104AF000704701468868C0F34000704701468868E7
:104B000000F0010070470146886800F0010070471E
:104B100001468868C0F30070704701468868C0F39A
:104B20008000704701468868C0F3800070470146E6
:104B3000C86800F4406008B9012070470020FCE715
:104B40008168024A1140091D81607047C0FFFF7FE4
:104B500070B500F11404C1F3406504EB85031C68D3
:104B6000C1F304560725B540AC43C1F3045502FA1E
:104B700005F52C431C6070BD826822F0E0720A4388
:104B80008260704710B500F1600404EB81031C687B
:104B900024F0004414431C6010BD000000B589B02F
:104BA000002006900790089018216846FBF755FBF7
:104BB0007B487C490860002048600021794881607A
:104BC000C16001210161042141610021017641762A
:104BD0001021C161002180F82010012141624FF4B1
:104BE000D86181624FF48061C162012180F8301088
:104BF0000021416380F83810FCF722FC08B1FCF773
:104C0000A2F80020069006A96648FCF7D1F808B182
:104C1000FCF799F86448009006200190002002906B
:104C20007F200390042004900020059069465D4891
:104C3000FCF74EF908B1FCF786F85C4800900C20B0
:104C4000019069465748FCF743F908B1FCF77BF837
:104C5000574800901220019069465248FCF738F9F5
:104C600008B1FCF770F8534800901820019069468D
:104C70004C48FCF72DF908B1FCF765F84E48009058
:104C80004FF48070019069464648FCF721F908B15D
:104C9000FCF759F8494800904FF483700190694639
:104CA0004048FCF715F908B1FCF74DF8444800906E
:104CB0004FF48670019069463A48FCF709F908B14B
:104CC000FCF741F83F4800904FF489700190694625
:104CD0003448FCF7FDF808B1FCF735F83A48009085
:104CE0004FF48C70019069462E48FCF7F1F808B13A
:104CF000FCF729F8354800904FF4007001906946A0
:104D00002848FCF7E5F808B1FCF71DF8304800909A
:104D100040F20620019069462248FCF7D9F808B114
:104D2000FCF711F82B4800904FF40370019069468E
:104D30001C48FCF7CDF808B1FCF705F826480090B0
:104D400040F21220019069461648FCF7C1F808B1FC
:104D5000FBF7F9FF214800904FF406700190694677
:104D60001048FCF7B5F808B1FBF7EDFF1C480090C0
:104D70004FF44070019069460A48FCF7A9F808B161
:104D8000FBF7E1FF1748009040F2063001906946BA
:104D90000448FCF79DF808B1FBF7D5FF09B000BD4A
:104DA0000000045054000020020030040400600899
:104DB0000800900C1000C0102000F01440002019D2
:104DC0008000501D000180210002B0250004002A4F
:104DD0000008302E00106032002090360040C03AAB
:104DE0000080F03E0000214300B587B0182101A8E3
:104DF000FBF733FA47484849086000204860002123
:104E000045488160C16001210161042141610021A7
:104E1000017641760821C161002180F8201001212E
:104E200041624FF4A06181624FF48061C16201214F
:104E300080F830100021416380F83810FCF700FB47
:104E400008B1FBF780FF3548019006200290002052
:104E500003907F200490042005900020069001A973
:104E60002D48FCF735F808B1FBF76DFF2C48019091
:104E70000C20029001A92848FCF72AF808B1FBF79A
:104E800062FF284801901220029001A92248FCF7F5
:104E90001FF808B1FBF757FF234801901820029034
:104EA00001A91D48FCF714F808B1FBF74CFF1F4897
:104EB00001904FF48070029001A91748FCF708F8A0
:104EC00008B1FBF740FF1A4801904FF4837002903D
:104ED00001A91148FBF7FCFF08B1FBF734FF1548A7
:104EE00001904FF48670029001A90B48FBF7F0FF88
:104EF00008B1FBF728FF104801904FF48970029029
:104F000001A90548FBF7E4FF08B1FBF71CFF07B058
:104F100000BD000000020450B8000020400020192D
:104F20008000501D000180210002B0250004002AED
:104F30000008302E001060320020903608B500BF07
:104F40002148806C40F001001F4988640846806C4D
:104F500000F00100009000BF00BF00BF0846806C59
:104F600040F0020088640846806C00F00200009067
:104F700000BF00BF002201210B20FDF703FA0B2028
:104F8000FDF7F0F9002202210C20FDF7FBF90C20BF
:104F9000FDF7E8F9002201210D20FDF7F3F90D20BE
:104FA000FDF7E0F9002206213B20FDF7EBF93B205D
:104FB000FDF7D8F9002206213C20FDF7E3F93C205B
:104FC000FDF7D0F908BD00000010024010B50349FC
:104FD0000348FBF7B9FE0349087010BD0D0000201F
:104FE000D4AE00080C00002000B587B0142102A840
:104FF000FBF733F900BF5D48C06C40F020005B490F
:10500000C8640846C06C00F02000019000BF00BFDB
:1050100000BF0846C06C40F08000C8640846C06C01
:1050200000F08000019000BF00BF00BF0846C06CC8
:1050300040F00400C8640846C06C00F00400019011
:1050400000BF00BF00BF0846C06C40F00100C8644C
:105050000846C06C00F00100019000BF00BF00BF17
:105060000846C06C40F00200C8640846C06C00F0FE
:105070000200019000BF00BF00BF0846C06C40F0B6
:105080001000C8640846C06C00F01000019000BF1A
:1050900000BF00BF0846C06C40F04000C86408462E
:1050A000C06C00F04000019000BF00BFFDF706FAA1
:1050B00000BF2E48C06C40F008002C49C864084668
:1050C000C06C00F00800019000BF00BF00221C214E
:1050D0002748FCF7C7FF002241212648FCF7C2FF02
:1050E0000220029000200390049002A92248FCF7BD
:1050F000AFFE1C2002900120039000200490059038
:1051000002A91B48FCF7A4FE802002900020039017
:10511000049002A91948FCF79BFE0120029003901D
:1051200002200490059002A91248FCF791FE20206D
:105130000290134803900220049002A90D48FCF746
:1051400087FE4020029001200390002004900590EB
:1051500002A90848FCF77CFE002203211720FDF776
:1051600011F91720FDF7FEF807B000BD001002404E
:1051700000180048000C00480014004800080048CF
:105180000000111010B5124812490860124848601A
:105190000021104881600121C1600021016141614D
:1051A0008161C1610162FCF7D3FF08B1FBF7CBFD60
:1051B00000210848FCF762FF08B1FBF7C4FD00219D
:1051C0000448FCF790FF08B1FBF7BDFD10BD0000DF
:1051D00000540040AC010020EC9C901006480749A8
:1051E000086000204860002104488160C1600161BE
:1051F000416181617047000000280140F8010020F2
:1052000010B50F480F490860002048604FF48061D6
:105210000C4881604FF4E061C1600021016141618F
:1052200081610162416281620721C16200210163E3
:105230004163FEF784FD08B1FBF785FD10BD00005A
:10524000003001400C03002000B587B0002003901F
:105250000490059006900090019002904FF08040DD
:1052600013490860C7204860002111488160C721A8
:10527000C160002101618161FFF7A8F808B1FBF767
:1052800062FD4FF48050039003A90948FFF724F909
:1052900008B1FBF758FD20200090002002906946DD
:1052A0000348FFF733F808B1FBF74DFD07B000BD29
:1052B000B803002000B58FB000200B900C900D902B
:1052C0000E90089009900A901C2101A8FAF7C5FFDA
:1052D0001E481F4908606320486000211C48816007
:1052E0006321C160002101618161FFF76FF808B19E
:1052F000FBF729FD4FF480500B900BA91448FFF7E2
:10530000EBF808B1FBF71FFD1148FFF7D5FA08B11C
:10531000FBF719FD2020089000200A9008A90C48EE
:10532000FEF7F4FF08B1FBF70EFD002001902720E7
:1053300002900020039005900C2201A90448FFF779
:105340002EFA08B1FBF7FFFC0FB000BD00040040CF
:10535000F803002010B50D480D4908604FF4E12016
:10536000486000210A488160C16001610C214161EF
:1053700000218161C161016200200549486208463F
:10538000FFF723FB08B1FBF7DEFC10BD003801403E
:105390003804002000BFFEE7704770472DE9F04158
:1053A00004460F4600255C48C06800F0030090B139
:1053B0005948C06800F003002168884209D120687C
:1053C00038B15548C068C0F30210401C616888427B
:1053D00033D0012531E02068012804D0022809D00B
:1053E00003281AD10DE04C48006800F0020000B913
:1053F000012514E04848006800F4806000B90125E8
:105400000DE04548006800F4003028B942480068C3
:1054100000F4802000B9012501E0012500BF00BF94
:105420005DB9D4E90010401E41EA00103A49C9684C
:1054300021F0730108433849C860002D68D136480F
:10544000006820F0806034490860FCF711FE0646D1
:1054500006E0FCF70DFE801B022801D9032505E0BC
:105460002D48006800F000600028F2D100BFCDBBDD
:105470006FB9A0680002E168090940EA4140264985
:105480000969264A114008432349086120E0012F99
:105490000FD1A0680002218A0122C2EB510140EA2B
:1054A00041501D4909691E4A114008431A490861C3
:1054B0000EE0A0680002217D0122C2EB510140EA0A
:1054C000416015490969174A1140084312490861AA
:1054D0001148006840F080600F490860FCF7C8FD83
:1054E000064607E014E0FCF7C3FD801B022801D943
:1054F000032505E00848006800F000600028F2D0AD
:1055000000BF2DB904480069A16908430249086138
:105510002846BDE8F081000000100240FF80FDFF3A
:10552000FF809FFFFF80FFF92DE9F04104460F4601
:1055300000255348C06800F0030090B15048C0688F
:1055400000F003002168884209D1206838B14C4836
:10555000C068C0F30210401C6168884233D0012546
:1055600031E02068012804D0022809D003281AD18C
:105570000DE04348006800F0020000B9012514E086
:105580003F48006800F4806000B901250DE03C4808
:10559000006800F4003028B93948006800F4802021
:1055A00000B9012501E0012500BF00BF5DB9D4E9C4
:1055B0000010401E41EA00103149C96821F0730112
:1055C00008432F49C860002D56D12D48006820F0AF
:1055D00080502B490860FCF74BFD064606E0FCF7BF
:1055E00047FD801B022801D9032505E024480068F7
:1055F00000F000500028F2D100BF75BB6FB9A06861
:105600000002E168090940EA41401D4949691D4A13
:10561000114008431A4948610EE0A0680002217C4D
:105620000122C2EB510140EA416015494969164A1D
:1056300011400843124948611148006840F0805009
:105640000F490860FCF714FD064607E0FCF710FD63
:10565000801B022802D9032506E00DE008480068F7
:1056600000F000500028F1D000BF2DB90448406977
:1056700061690843024948612846BDE8F08100009D
:1056800000100240FF80FDFFFF80FFF9F8B50446DF
:1056900000262348806D00F0805018B1FCF718FFF9
:1056A000054616E000BF1E48806D40F080501C4942
:1056B00088650846806D00F08050009000BF00BFF4
:1056C000FCF706FF05461648806D20F0805014490F
:1056D0008865B5F5007F07D1802C10D9A02C01D9A1
:1056E00002260CE001260AE0802C01D9032606E000
:1056F000802C01D1022602E0702C00D1012609483D
:10570000006820F00700304306490860084600683A
:1057100000F00700B04201D00120F8BD0020FCE7F6
:10572000001002400020024010B50248FDF792FF31
:1057300010BD0000F801002070B586B005460C468B
:1057400001943720029040200390002004904FF4F1
:105750008060059001A9284600F0F4FB41F28832F0
:105760003721284600F0F2F90646304606B070BDF3
:1057700070B586B005460C460B48204301902920A1
:10578000029040200390002004904FF48060059028
:1057900001A9284600F0D6FB284600F0DFFA0646AD
:1057A000304606B070BD00000000108070B586B0B5
:1057B00005460C46019410200290402003900020E2
:1057C00004904FF48060059001A9284600F0BAFBD0
:1057D00041F288321021284600F0B8F906463046DA
:1057E00006B070BD70B586B005460C460194062023
:1057F000029040200390002004904FF480600590B8
:1058000001A9284600F09EFB41F288320621284675
:1058100000F09CF90646304606B070BD30B585B044
:105820000446002000900190029003904FF48060A5
:1058300004906946204600F085FB204600F066F99A
:105840000546284605B030BD30B585B004464FF456
:10585000D570009008200190402002900020039015
:105860004FF4806004906946204600F06BFB2046B0
:1058700000F0FCFA0546284605B030BD70B586B08C
:1058800005460C460194122002904020039000200F
:1058900004904FF48060059001A9284600F052FB67
:1058A00041F288321221284600F050F9064630466F
:1058B00006B070BD70B586B005460C460194112047
:1058C000029040200390002004904FF480600590E7
:1058D00001A9284600F036FB41F288321121284602
:1058E00000F034F90646304606B070BDF0B585B01C
:1058F000064614461D460094072001904020029061
:10590000002003904FF4806004906946304600F018
:1059100019FB41F288320721304600F017F907469B
:10592000384605B0F0BD30B585B004460020009083
:1059300002200190C0200290002003904FF480606C
:1059400004906946204600F0FDFA204600F0D4F9A4
:105950000546284605B030BD70B586B005460C46F4
:10596000019409200290C0200390002004904FF47D
:105970008060059001A9284600F0E4FA284600F06E
:10598000BBF90646304606B070BD30B585B004465A
:1059900000200090332001904020029000200390CE
:1059A0004FF4806004906946204600F0CBFA41F243
:1059B00088323321204600F0C9F80546284605B054
:1059C00030BD70B586B005460C4601940D2002909E
:1059D00040200390002004904FF48060059001A9BE
:1059E000284600F0AFFA41F288320D21284600F037
:1059F000ADF80646304606B070BD70B586B00546B7
:105A00000C460020019003200290402003900020CB
:105A100004904FF48060059001A9284600F092FAA6
:105A200022460321284600F0C5F90646304606B056
:105A300070BD000030B585B00446002000900C20F9
:105A4000019040200290002003904FF48060049069
:105A50006946204600F076FA044A0C21204600F000
:105A600075F80546284605B030BD000000E1F50593
:105A700070B586B005460C4601941920029040206E
:105A80000390002004904FF48060059001A92846FF
:105A900000F058FA41F288321921284600F056F8F1
:105AA0000646304606B070BD70B586B005460C4659
:105AB00001941820029040200390002004904FF49D
:105AC0008060059001A9284600F03CFA41F2883236
:105AD0001821284600F03AF80646304606B070BD58
